0001000100000001ALICE DOE            20100101
0002000200000002BRIAN SMITH          20120315
0003000300000003CARLA BROWN          20081222
